:060000000200090203D911
:0300620002000693
:0300060002006590
:2000650012051E7516017582011205AB75824112059C7516017582021205AB900A3175F09E
:200085008012055090F8C0740DF080F822AF82E4F510F511900004C007120720AD82AE830D
:2000A500D0078D098E0A750B00EF6030E5102509FCE511350AFDAE0B75F00AEF84ABF0743C
:2000C500302BFB8C828D838EF01206D475F00AEF84FF0510E4B510D1051180CDE510250947
:2000E500FDE511350AFEAF0B8D828E838FF0E41206D4850982850A83850BF01203728509EB
:2001050082850A83850BF0120550AD09AE0AAF0B8D828E838FF012041E2290F8C0740DF089
:20012500E0F5822290F8C0740CF0E0F5822212012985820890FA00E508F0227516017582B9
:20014500011205AB900A3675F0801205507516017582021205AB900A3675F08012055075E3
:2001650016017582011205AB22AF82751601758202C0071205ABD0078F8212096FAC82ADFB
:2001850083AEF0FFC004C005C006C00790000075F02074401205D085820C85830D85F00EC9
:2001A500F50FE58124FCF581E4C0E0C0E07480C0E07443C0E0850C82850D83850EF0E50F8C
:2001C5001208AC85820C85830D85F00EF50FE58124FCF581C00CC00DC00EC00F900000756E
:2001E500F0C874421205D085820C85830D85F00EF50FE58124FCF581900011120720AE82F0
:20020500AF838E098F0A750B00C00CC00DC00EC00F90000075F0C874421205D085820C85CF
:20022500830D85F00EF50FE58124FCF581850C82850D83850EF0E50F12097AAF82E4F51058
:20024500F511E5102509FCE511350AFDAE0B75F00AEF84ABF074302BFB8C828D838EF01294
:2002650006D475F00AEF84FF0510E4B510020511C3E5109402E5116480948040C5E510258D
:2002850009FCE511350AFDAE0B8C828D838EF0742E1206D40510E4B510020511850CF0E503
:2002A5000D42F0E50E42F0E50F547F45F06030E5102509FCE511350AFDAE0B75F00AEF845D
:2002C500ABF074302BFB8C828D838EF01206D475F00AEF84FF0510E4B510C1051180BD7405
:2002E50004B51006E4B511028002801FE5102509FDE511350AFEAF0B8D828E838FF074300D
:200305001206D40510E4B510020511E5102509FDE511350AFEAF0B8D828E838FF0E412066E
:20032500D4850982850A83850BF01203727516017582011205AB900A4775F08012055075D3
:2003450016047582021205AB850982850A83850BF0120550900A5375F080120550AD09AE1D
:200365000AAF0B8D828E838FF012041E22AD82AE83AFF0C007C006C005120894AB82D005BE
:20038500D006D0078B14E4F510F511E514C313FC8C01E4FA20E73C8D828E838FF012098268
:2003A500F515A814790018B8FF0119E82DF8E93EF98F02888289838AF0120982FB8D828E8D
:2003C500838FF01206D4888289838AF0E5151206D480BD22C020C0E0C0F0C082C083C007D9
:2003E500C006C005C004C003C002C001C000C0D075D00012011F85820812016ED0D0D0009C
:19040500D001D002D003D004D005D006D007D083D082D0F0D0E0D02032DB
:200A31005465737400202020202020202020202020202020200054656D70657261747572DC
:060A51006100202A4300B1
:20041E0085822185832285F023E5214522700122E4F524F525900001E0F9A3E0FA78017CE1
:20043E0000E94A6025AB21AF22C3E99BEA9F501A89248A25740229FEE43AFF8E008F048E4A
:20045E00828F83E0F9A3E0FA80D789068A07AB21AD22EB24FEFBED34FFFD8B018D027402CC
:20047E0029FBE43AFD8B828D83EEF0EFA3F088828C83E9F0EAA3F089828A83E0F8A3E0FCC4
:20049E00EEB50033EFB5042F88828C83A3A3E0FEA3E0FF8B828D83EEF0EFA3F089828A833D
:2004BE00E0FEA3E0FF8E828F83E0FEA3E0FF89828A83EEF0EFA3F0E5244525604285248284
:2004DE00852583E0FEA3E0FFEEB50133EFB5022F89828A83E0F9A3E0FA852482852583E916
:2004FE00F0EAA3F074022524FEE43525FF8B828D83E0FBA3E0FD8E828F83EBF0EDA3F02260
:20051E0012054390FE007438F012054390FE00740CF012054390FE007406F012054390FEA7
:20053E00007401F02290FE02E05480FFBF800280F422AD82AE83AFF07C00EC2DF9E43EFA53
:20055E008F0389828A838BF01209826030C007C006C005C004C003C002C001120543D001A4
:20057E00D002D003D004D005D006D00789828A838BF0120982F990FE01F00C80BD22AF821E
:20059E00C007120543D00790FE01EFF022AF827E00BF0105E516FD14FEBF0206AF16743FF8
:1205BE002FFE430680C006120543D00690FE00EEF022B1
:2005D000120673BC0003020866EF60FA30D502B2D1E583B4FF0302087CE582B4FF030208B3
:2005F0007C258340072482400B020866248314500302087CF582EA8DF0A4A8F0EA8EF0A465
:2006100028F8E435F0F9EB8DF0A428E935F0F9E433CA8FF0A429F9EA35F0FAEBF88EF0A439
:2006300029F9EA35F0FAE433FBEC8DF0A429F9EA35F0FAE43BFBE88FF0A42AFAEB35F0FBE1
:20065000E433CCFD8EF0A42AFAEB35F0FBE43CFCED8FF0A42BFBEC35F0FC20E7031206A137
:0306700002084538
:20067300AA82AB83A2F73392D1F5826002D2F7ACF0E58124F9F8E6FD08E6FE0886F008E6EA
:0E069300A2F73392D5F5836002D2F7AFF022C2
:06003800E478FFF6D8FD9C
:2006A1007804EC7011E58224F8500AF582E4C9CACBFCD8EF22EC7820058220E713D5820158
:1306C10022C3E933F9EA33FAEB33FBEC33FCD8EA15822266
:200016007900E94400601B7A00900A59780375A004E493F2A308B8000205A0D9F4DAF27527
:02003600A0FF29
:1B06D40020F71130F6138883A88220F509F6A8837583002280FEF280F5F02225
:2006EF009000017403F07400A3F0900A57E493FE740193FF1EBEFF011FEE2403FEEF34004E
:20070F00FF900003EEF0EFA3F0900005E4F0A3F022858217858318900001E0F5F0A3E0455E
:20072F00F070031206EFE5174518601274022517FCE43518FDC3EC9517ED951850049000C0
:20074F00002274022517F517E43518F518C3E5179404E51894005006751704751800900081
:20076F0001E0FCA3E0FD7A017B00EC4D70030208418C828D83E0F8A3E0F9880689078C1DE7
:20078F008D1EEEC3951DF519EF951EF51AC3E5199517E51A9518500302082A74042517FE2B
:2007AF00E43518FFC3E5199EE51A9F404EE517251DFEE518351EFF8E1B8F1C851B82851CCD
:2007CF0083E8F0E9A3F07402251BF8E4351CF98C828D83A3A3E0FEA3E0FF88828983EEF09F
:2007EF00EFA3F08A828B83E51BF0E51CA3F08C828D83E51BF0E51CA3F080148C828D83A3D3
:20080F00A3E0FEA3E0FF8A828B83EEF0EFA3F074022CFEE43DFF8E828F832274022CFEE4C4
:16082F003DFF8E028F038E828F83E0FCA3E0FD02077990000022A3
:20003E007800E84400600A790175A000E4F309D8FC7802E84404600C7905900001E4F0A3B5
:04005E00D8FCD9FAF7
:20084500B98003EA13B34010EA2401FAE43BFBE43CFC50047C800582BC000EBB000BBA00F7
:2008650008E4F5F0F583F58222A2D1E582138CF092F78B838A8222E4F583F58275F080F4B7
:0F088500A2D11322E4F583F58275F0C0747F22AF
:020A5700000499
:18089400AA82AB831209826003A380F8C3E5829AF582E5839BF58322FF
:2008AC0012067330D502B2D1BF0009BC000302088902087CBC0003020866E583B4FF0BE53D
:2008CC0082B4FF03020889020866E582B4FF0302087CC395835007247F400B0208662480FA
:2008EC0014500302087CF582C3ED9AEE9BEF9C40111582C3EA33F9EB33FAEC33FBE433FC24
:20090C008005E4CCCBCAF9C08275F019C3E99DEA9EEB9FEC9400D5F002802D400EE99DF92C
:20092C00EA9EFAEB9FFBEC9400FCC3B3E833F8E58233F582E58333F583C3E933F9EA33FA8C
:20094C00EB33FBEC33FC80C4B3E4F938FAE43582FBE43583FCD082500405827C801206A141
:03096C0002085D21
:0D0009007581251209B1E582600302000631
:0B096F00E4AC82FBFAF974860209A7D1
:08097A007F861209B7F5822205
:1C09820020F71430F6148883A88220F507E6A88375830022E280F7E49322E02284
:13099E00FCABF0AA83A982749EC2D1F5821206A102084533
:0409B1007582002229
:2009B5007F9E120A1F30D103020866C3EF9582500974FFF5F0F583F5822279001209DC89D2
:0709D500828A838BF0EC2203
:2009DC006040F82582500274FFF582E824F8501ECCCBCAF9E4CC24F85014CBCAF9E4CB2423
:2009FC00F8500BCAF9E4CA24F8500379002224086010F8C3EC13FCEB13FBEA13FAE913F9D6
:030A1C00D8F122EC
:120A1F00AA82AB83A2F73392D1F5826002D2F7ACF022DC
:00000001FF
